{
  "_format": "hh-sol-artifact-1",
  "contractName": "WavePortal",
  "sourceName": "contracts/WavePortal.sol",
  "abi": [
    {
      "inputs": [],
      "stateMutability": "payable",
      "type": "constructor"
    },
    {
      "anonymous": false,
      "inputs": [
        {
          "indexed": true,
          "internalType": "address",
          "name": "from",
          "type": "address"
        },
        {
          "indexed": false,
          "internalType": "uint256",
          "name": "timestamp",
          "type": "uint256"
        },
        {
          "indexed": false,
          "internalType": "string",
          "name": "message",
          "type": "string"
        }
      ],
      "name": "NewWave",
      "type": "event"
    },
    {
      "inputs": [],
      "name": "getAllWaves",
      "outputs": [
        {
          "components": [
            {
              "internalType": "address",
              "name": "waver",
              "type": "address"
            },
            {
              "internalType": "string",
              "name": "message",
              "type": "string"
            },
            {
              "internalType": "uint256",
              "name": "timestamp",
              "type": "uint256"
            }
          ],
          "internalType": "struct WavePortal.Wave[]",
          "name": "",
          "type": "tuple[]"
        }
      ],
      "stateMutability": "view",
      "type": "function"
    },
    {
      "inputs": [],
      "name": "getTotalWaves",
      "outputs": [
        {
          "internalType": "uint256",
          "name": "",
          "type": "uint256"
        }
      ],
      "stateMutability": "view",
      "type": "function"
    },
    {
      "inputs": [
        {
          "internalType": "address",
          "name": "",
          "type": "address"
        }
      ],
      "name": "lastWavedAt",
      "outputs": [
        {
          "internalType": "uint256",
          "name": "",
          "type": "uint256"
        }
      ],
      "stateMutability": "view",
      "type": "function"
    },
    {
      "inputs": [
        {
          "internalType": "string",
          "name": "_message",
          "type": "string"
        }
      ],
      "name": "wave",
      "outputs": [],
      "stateMutability": "nonpayable",
      "type": "function"
    }
  ],
  "bytecode": "0x60806040526200004f6040518060400160405280601d81526020017f54686973206973206120736d61727420636f6e747261637420627275680000008152506200005560201b6200064c1760201c565b620001e9565b620000f5816040516024016200006c919062000162565b6040516020818303038152906040527f41304fac000000000000000000000000000000000000000000000000000000007bffffffffffffffffffffffffffffffffffffffffffffffffffffffff19166020820180517bffffffffffffffffffffffffffffffffffffffffffffffffffffffff8381831617835250505050620000f860201b60201c565b50565b60008151905060006a636f6e736f6c652e6c6f679050602083016000808483855afa5050505050565b60006200012e8262000186565b6200013a818562000191565b93506200014c818560208601620001a2565b6200015781620001d8565b840191505092915050565b600060208201905081810360008301526200017e818462000121565b905092915050565b600081519050919050565b600082825260208201905092915050565b60005b83811015620001c2578082015181840152602081019050620001a5565b83811115620001d2576000848401525b50505050565b6000601f19601f8301169050919050565b61113480620001f96000396000f3fe608060405234801561001057600080fd5b506004361061004c5760003560e01c8063449d46c0146100515780639a2cdc081461006d578063a42a46631461008b578063bd43a908146100bb575b600080fd5b61006b6004803603810190610066919061098f565b6100d9565b005b610075610498565b6040516100829190610cfc565b60405180910390f35b6100a560048036038101906100a09190610966565b6104e3565b6040516100b29190610cfc565b60405180910390f35b6100c36104fb565b6040516100d09190610bf8565b60405180910390f35b42610384600360003373ffffffffffffffffffffffffffffffffffffffff1673ffffffffffffffffffffffffffffffffffffffff168152602001908152602001600020546101279190610e0e565b10610167576040517f08c379a000000000000000000000000000000000000000000000000000000000815260040161015e90610cdc565b60405180910390fd5b42600360003373ffffffffffffffffffffffffffffffffffffffff1673ffffffffffffffffffffffffffffffffffffffff1681526020019081526020016000208190555060016000808282546101bd9190610e0e565b925050819055506102036040518060400160405280601481526020017f25732068617320776176656420617420796f752e000000000000000000000000815250336106e5565b600260405180606001604052803373ffffffffffffffffffffffffffffffffffffffff16815260200183815260200142815250908060018154018082558091505060019003906000526020600020906003020160009091909190915060008201518160000160006101000a81548173ffffffffffffffffffffffffffffffffffffffff021916908373ffffffffffffffffffffffffffffffffffffffff16021790555060208201518160010190805190602001906102c2929190610846565b506040820151816002015550506000606460015442446102e29190610e0e565b6102ec9190610e0e565b6102f69190610f45565b90506103376040518060400160405280601681526020017f52616e646f6d20232067656e6572617465643a2025730000000000000000000081525082610781565b806001819055506032811015610444576000655af3107a4000905047811115610395576040517f08c379a000000000000000000000000000000000000000000000000000000000815260040161038c90610c9c565b60405180910390fd5b60003373ffffffffffffffffffffffffffffffffffffffff16826040516103bb90610be3565b60006040518083038185875af1925050503d80600081146103f8576040519150601f19603f3d011682016040523d82523d6000602084013e6103fd565b606091505b5050905080610441576040517f08c379a000000000000000000000000000000000000000000000000000000000815260040161043890610cbc565b60405180910390fd5b50505b3373ffffffffffffffffffffffffffffffffffffffff167f5f7e16dc676677766a70e9c5628aa6c54ddb8b6e5188e2ae1e1f17f1ffbea716428460405161048c929190610d17565b60405180910390a25050565b60006104db6040518060400160405280600f81526020017f546f74616c2057617665733a2025640000000000000000000000000000000000815250600054610781565b600054905090565b60036020528060005260406000206000915090505481565b60606002805480602002602001604051908101604052809291908181526020016000905b8282101561064357838290600052602060002090600302016040518060600160405290816000820160009054906101000a900473ffffffffffffffffffffffffffffffffffffffff1673ffffffffffffffffffffffffffffffffffffffff1673ffffffffffffffffffffffffffffffffffffffff1681526020016001820180546105a890610ee2565b80601f01602080910402602001604051908101604052809291908181526020018280546105d490610ee2565b80156106215780601f106105f657610100808354040283529160200191610621565b820191906000526020600020905b81548152906001019060200180831161060457829003601f168201915b505050505081526020016002820154815250508152602001906001019061051f565b50505050905090565b6106e2816040516024016106609190610c1a565b6040516020818303038152906040527f41304fac000000000000000000000000000000000000000000000000000000007bffffffffffffffffffffffffffffffffffffffffffffffffffffffff19166020820180517bffffffffffffffffffffffffffffffffffffffffffffffffffffffff838183161783525050505061081d565b50565b61077d82826040516024016106fb929190610c3c565b6040516020818303038152906040527f319af333000000000000000000000000000000000000000000000000000000007bffffffffffffffffffffffffffffffffffffffffffffffffffffffff19166020820180517bffffffffffffffffffffffffffffffffffffffffffffffffffffffff838183161783525050505061081d565b5050565b6108198282604051602401610797929190610c6c565b6040516020818303038152906040527f9710a9d0000000000000000000000000000000000000000000000000000000007bffffffffffffffffffffffffffffffffffffffffffffffffffffffff19166020820180517bffffffffffffffffffffffffffffffffffffffffffffffffffffffff838183161783525050505061081d565b5050565b60008151905060006a636f6e736f6c652e6c6f679050602083016000808483855afa5050505050565b82805461085290610ee2565b90600052602060002090601f01602090048101928261087457600085556108bb565b82601f1061088d57805160ff19168380011785556108bb565b828001600101855582156108bb579182015b828111156108ba57825182559160200191906001019061089f565b5b5090506108c891906108cc565b5090565b5b808211156108e55760008160009055506001016108cd565b5090565b60006108fc6108f784610d6c565b610d47565b90508281526020810184848401111561091457600080fd5b61091f848285610ea0565b509392505050565b600081359050610936816110e7565b92915050565b600082601f83011261094d57600080fd5b813561095d8482602086016108e9565b91505092915050565b60006020828403121561097857600080fd5b600061098684828501610927565b91505092915050565b6000602082840312156109a157600080fd5b600082013567ffffffffffffffff8111156109bb57600080fd5b6109c78482850161093c565b91505092915050565b60006109dc8383610b75565b905092915050565b6109ed81610e64565b82525050565b6109fc81610e64565b82525050565b6000610a0d82610dad565b610a178185610dd0565b935083602082028501610a2985610d9d565b8060005b85811015610a655784840389528151610a4685826109d0565b9450610a5183610dc3565b925060208a01995050600181019050610a2d565b50829750879550505050505092915050565b6000610a8282610db8565b610a8c8185610dec565b9350610a9c818560208601610eaf565b610aa581611032565b840191505092915050565b6000610abb82610db8565b610ac58185610dfd565b9350610ad5818560208601610eaf565b610ade81611032565b840191505092915050565b6000610af6601b83610dfd565b9150610b0182611043565b602082019050919050565b6000610b19602783610dfd565b9150610b248261106c565b604082019050919050565b6000610b3c600083610de1565b9150610b47826110bb565b600082019050919050565b6000610b5f600883610dfd565b9150610b6a826110be565b602082019050919050565b6000606083016000830151610b8d60008601826109e4565b5060208301518482036020860152610ba58282610a77565b9150506040830151610bba6040860182610bc5565b508091505092915050565b610bce81610e96565b82525050565b610bdd81610e96565b82525050565b6000610bee82610b2f565b9150819050919050565b60006020820190508181036000830152610c128184610a02565b905092915050565b60006020820190508181036000830152610c348184610ab0565b905092915050565b60006040820190508181036000830152610c568185610ab0565b9050610c6560208301846109f3565b9392505050565b60006040820190508181036000830152610c868185610ab0565b9050610c956020830184610bd4565b9392505050565b60006020820190508181036000830152610cb581610ae9565b9050919050565b60006020820190508181036000830152610cd581610b0c565b9050919050565b60006020820190508181036000830152610cf581610b52565b9050919050565b6000602082019050610d116000830184610bd4565b92915050565b6000604082019050610d2c6000830185610bd4565b8181036020830152610d3e8184610ab0565b90509392505050565b6000610d51610d62565b9050610d5d8282610f14565b919050565b6000604051905090565b600067ffffffffffffffff821115610d8757610d86611003565b5b610d9082611032565b9050602081019050919050565b6000819050602082019050919050565b600081519050919050565b600081519050919050565b6000602082019050919050565b600082825260208201905092915050565b600081905092915050565b600082825260208201905092915050565b600082825260208201905092915050565b6000610e1982610e96565b9150610e2483610e96565b9250827fffffffffffffffffffffffffffffffffffffffffffffffffffffffffffffffff03821115610e5957610e58610f76565b5b828201905092915050565b6000610e6f82610e76565b9050919050565b600073ffffffffffffffffffffffffffffffffffffffff82169050919050565b6000819050919050565b82818337600083830152505050565b60005b83811015610ecd578082015181840152602081019050610eb2565b83811115610edc576000848401525b50505050565b60006002820490506001821680610efa57607f821691505b60208210811415610f0e57610f0d610fd4565b5b50919050565b610f1d82611032565b810181811067ffffffffffffffff82111715610f3c57610f3b611003565b5b80604052505050565b6000610f5082610e96565b9150610f5b83610e96565b925082610f6b57610f6a610fa5565b5b828206905092915050565b7f4e487b7100000000000000000000000000000000000000000000000000000000600052601160045260246000fd5b7f4e487b7100000000000000000000000000000000000000000000000000000000600052601260045260246000fd5b7f4e487b7100000000000000000000000000000000000000000000000000000000600052602260045260246000fd5b7f4e487b7100000000000000000000000000000000000000000000000000000000600052604160045260246000fd5b6000601f19601f8301169050919050565b7f496e737566666963656e7420636f6e74726163742066756e64732e0000000000600082015250565b7f4661696c656420746f207769746864726177206d6f6e65792066726f6d20636f60008201527f6e74726163742e00000000000000000000000000000000000000000000000000602082015250565b50565b7f576169742031356d000000000000000000000000000000000000000000000000600082015250565b6110f081610e64565b81146110fb57600080fd5b5056fea26469706673582212204cd34ae898375e8c4a2700660ed437b6b057741587ba7bffaa5af3de4c598f8c64736f6c63430008040033",
  "linkReferences": {},
  "deployedLinkReferences": {}
}